:020000040000FA
:1000000000800020A500000001000020AF000000DB
:1000100000000000000000000000000000000000E0
:10002000000000000000000000000000AF00000021
:100030000000000000000000B1000000B30000005C
:10004000E9200000B5000000B5000000B500000088
:10005000B5000000B5000000B500000075100000FC
:10006000B5000000B5000000B5000000B5000000BC
:10007000B5000000B5000000B5000000B5000000AC
:10008000B5000000B5000000B5000000B50000009C
:100090000348854600F0B6F8004800474D3C000094
:1000A000008000200448804704480047FEE7FEE740
:1000B000FEE7FEE7FEE70000BD2000009100000023
:1000C00030B50B46014600202022012409E00D46F0
:1000D000D5409D4205D31D469540491B2546954078
:1000E00040191546521E002DF1DC30BD70B50024BC
:1000F0002546002801DA01244042002901DA0125C1
:100100004942FFF7DDFFAC4200D04042002C00D056
:10011000494270BD03460B439B0703D009E008C961
:10012000121F08C0042AFAD203E00B780370401CA7
:10013000491C521EF9D27047D2B201E00270401C35
:10014000491EFBD270470022F6E710B513460A4657
:1001500004461946FFF7F0FF204610BD421C017807
:10016000401C0029FBD1801A704703460A780270B0
:10017000401C491C002AF9D1184670470321001D74
:10018000401E037812021A43491EF9D510467047E3
:10019000034603220870000A491C521EFAD518466D
:1001A0007047F0B51FB40646002082B005464024D3
:1001B000019100901BE0019922460F46304600F065
:1001C00043F8049A059B801A994110D310461946AA
:1001D000224600F029F8361A8F4101972246012065
:1001E0000021009F00F020F838184D410090204673
:1001F000641E0028DFDC019B00982946324607B0C8
:10020000F0BD0000064C0125064E05E0E36807CC72
:100210002B430C3C98471034B442F7D3FFF73CFF14
:100220005C7200008C72000010B5202A04DB0146CD
:10023000203A9140002010BD914020239C1A034693
:10024000E3401943904010BD10B5202A04DB084656
:10025000203AD040002110BD0B46D340D04020248E
:10026000A21A91400843194610BD70B58C18057844
:10027000401C6B075B0F01D10378401C2A1106D18B
:100280000278401C03E006780E70401C491C5B1E7F
:10029000F9D12B0705D40023521E0DD40B70491C35
:1002A000FAE70378401CCB1A921C03E01D780D700E
:1002B000491C5B1C521EF9D5A142D8D3002070BD49
:1002C00030B5174B0022154C5B790DE03C255543AA
:1002D0002D192D6B854205D1002803D0002914D09B
:1002E0000A7012E0521CD2B29A42EFD3002210E000
:1002F0003C2555432D196D6B854208D1002806D049
:10030000002902D080200243EAE7012030BD521CC0
:10031000D2B29A42ECD3002030BD0000700B002016
:10032000BC00002070B500240A4D0B4E0DE03C20AF
:1003300060434019016A052905D18169002902D06D
:10034000042100F0EFFC641CE4B270798442EED327
:1003500070BD0000700B0020BC000020F0B51A48F2
:100360000222816B8B0001468039CA50174FFA89EF
:10037000836B9B005B18DA63826B154B856B1C6883
:10038000144B6243D218AD006D18AA67C26B521CA1
:10039000C263826B521C8263856B0F4A127895424E
:1003A00001D300258563866B0125B6008D51816BD5
:1003B0006143C918B9810564C16B5300D3189942D0
:1003C00000D9C263F0BD0000E43E00200090004070
:1003D0009C37002010020020BE0000200349026864
:1003E0000A6042684A60806888607047B0370020C1
:1003F000064902680A6042684A6082688A60C26888
:10040000CA60006908610020704700009C37002026
:1004100010B590B03C216846FFF795FE124C694636
:1004200060690B907D20C000099040000A90032075
:1004300007900E4802904320C0000390A01C00F0DB
:1004400079FA03F0EFFB0121A07800F031FCA078ED
:1004500000F042FA03F0E6FB0A21A07800F022FA4D
:1004600003F0E0FB10B010BD88000020283300200E
:1004700010B500F003FE10BD00B500F0F5F9024A1A
:100480000021D16200BD0000583700200148008CD7
:10049000C0B270475837002006494979884201D3D5
:1004A000002070473C214143034A0023505C5350D5
:1004B00070470000BC000020700B00200120704736
:1004C00070B5FFF7D9FF0446C0070CD0124D13A03A
:1004D000296B01F08DFE16A0696B01F089FE19A051
:1004E000A96B01F085FE600705D5FFF7CFFF014638
:1004F00019A001F07DFEE0060CD500242046FFF790
:10050000CBFF010002D0204600F034F8641CE4B2B6
:10051000042CF3D370BD000058370020556E72656F
:10052000616368436F646520A3BA25640A00000014
:10053000556E726561636850726F746F20A3BA253F
:10054000640A0000556E7265616368506F727420B2
:10055000A3BA25640A00000047494E545F53544132
:10056000545F5048595F4348414E4745202530323B
:10057000780A0000F0B50646304C8DB00D464807AD
:100580003FD50021304600F067FB0A900AAA2C49AB
:10059000304600F099FA2A48012601780909022913
:1005A00004D003290AD009292BD143E025A001F06A
:1005B0001FFE2670206A01F0DDF922E00BAA0A99DD
:1005C0002B46019204911A4605AE039011460097FE
:1005D0000296084600F07EFF059881B21CA001F04B
:1005E00007FE00260B9F06E039781DA001F000FEF3
:1005F000761CF6B27F1C05988642F5DB19A001F047
:10060000F7FD280706D518A001F0F2FDE169A06901
:1006100001F08EF9E80604D519A001F0E9FDFFF715
:10062000F7FE680604D51AA001F0E2FD01F07EFD98
:100630000DB0F0BD667019A0E1E700008800002051
:1006400040350020636F6E6E61636B0D0A00000021
:100650007061796C6F61646C656E3D25640D0A0094
:10066000256320000D0A000054435020436F6E6E36
:1006700065637420537563636573730A000000003B
:1006800054435020446973636F6E6E6563740A004F
:100690005443502054696D6F75740A00737562611C
:1006A000636B0D0A00000000F8B50F4604463F4991
:1006B0003F481E46154681420ED83E4981420BD81E
:1006C0003D49814208D83D49814205D83C49814293
:1006D00002D83C49814201D9FB20F8BD44213A4867
:1006E000FFF731FD18213948FFF72DFD042221467F
:1006F0003548FFF70FFD344C04223946201DFFF723
:1007000009FD2046062231460C30FFF703FD002D7F
:100710002CD02046042229460830FFF7FBFC2C4D44
:100720003222A8680127C106C90E6971C105090FE7
:10073000A970C104090FE9708104C90F297141032F
:10074000C90EA1610102C90E5143E161C101C90F86
:10075000002902D0216C394321648001C00F03D0ED
:10076000206C02210843206400260BE0FF20607209
:10077000A07200202072D2E73146002000F0F6FA85
:10078000761CF6B268798642F6D300F095FD01F04A
:1007900039FA0D480F495830676201600E494160CF
:1007A000092181602F700020F8BD0000D0010020D9
:1007B0000000012010020020700B0020600C0020BF
:1007C0007C2000208832002058370020C0370020CD
:1007D000BC000020204E0000983A0000F0B585B023
:1007E0001C4615460E460746FFF768FE012802D054
:1007F000FC2005B0F0BD0F490D4808604B20C0003B
:1008000000904320C00001900B4802900A20039002
:100810002B2004906846FFF7EBFD23462A4631461D
:100820003846FFF741FF044603F0ACFB2046E0E703
:1008300084245502C4000020F811000010B50848B7
:10084000808CC0070AD001F055F901F00DF9054878
:1008500002F066FB00F042FDFFF764FD10BD0000F2
:1008600058370020D837002010B50B4900204A79AE
:100870000A490B4B0BE03C2444431C59002C04D088
:10088000C86A10221043C86203E0401CC0B2904204
:10089000F1D3888DC0B210BDBC00002058370020B5
:1008A000700B00203C2250430A4A8218106A052827
:1008B0000AD1106B002807D0D269022A06D0032A79
:1008C00004D0002A02D002E017207047C172002035
:1008D00070470000700B0020F8B53C2148431349D5
:1008E0004418256B002D02D0206A052801D017205E
:1008F000F8BD00276763E06A0090A08C0C4B82B2C1
:100900006946284604F038F8060007D0284603F068
:10091000D9FF3046276200F005FCF8BD2035A878E5
:10092000BF210840A8700020F8BD0000700B002017
:1009300081140000F8B50C46002101700D465A499B
:10094000497908E03C22594B6A43D218126A002ABE
:1009500003D06D1CEDB28D42F4D38D4201D3202023
:10096000F8BD0570E069002805D002281FD00328D3
:1009700069D02120F8BD208DC0B203F0B5FD06007E
:1009800075D04B48694600680090304603F05AFD28
:10099000E06A00906946304603F060FD3C20434920
:1009A000684342184349304603F0B4FD3FE006F087
:1009B000A1FA060075D0E06A00900F20000703F04E
:1009C00086FB0746009907200F40400703F07FFB96
:1009D000874205D03849684602F004FD002806D059
:1009E000208D364982B2304606F0E0F812E03048F9
:1009F000694600680090208D82B2304606F0D6F835
:100A0000002809D1E06A0090A08C694682B2304685
:100A100006F01AF9002802D000F084FBF8BD3C2053
:100A20002249684342182649304606F070FA0520EC
:100A3000266320626946204802F0CEF92946204606
:100A400000F094F92BE004F0C9FC060029D0184806
:100A5000694600680090208D82B2304603F0B4FEF3
:100A6000070005D0304603F02DFF3846D4E718E0E4
:100A70003C200E4968434118304603F0A3FE11495B
:100A8000304604F0DFF926630520666320622946BC
:100A9000204600F06BF96946074802F09DF90020F6
:100AA000F8BD1120F8BD0000BC000020700B002034
:100AB00058370020991C0000D8370020CF71000063
:100AC000151F0000A90E0000F7B582B0049900229E
:100AD0000D680A603C2148435D494618306A052884
:100AE00002D0172005B0F0BD002D17D07469B06892
:100AF0000090F168401E0918B069A84200D205466E
:100B0000039800287AD067198F4209D2042D07D99B
:100B10002A462146FFF7FEFA3C467FE01A20E1E72D
:100B20004C48007C800724D50F1B7F1CAF4200D3AC
:100B30002F46042F05D93A4621460398FFF7EAFAD3
:100B400004E0BAB22146039800F034FF0398009CF9
:100B5000C019BD4262D9EF1B042F04D93A46214681
:100B6000FFF7D8FA03E0BAB2214600F023FFE419F8
:100B700054E000203EE0039A23781370039A641C2B
:100B8000521C8C4200D9009C401CA84246D22378BB
:100B90001370521C641C8C4200D9009C401CA8425B
:100BA0003CD223781370521C641C8C4200D9009CE8
:100BB000401CA84232D223781370521C641C8C4211
:100BC00000D9009C401CA84228D223781370521CE4
:100BD000641C8C4200D9009C401CA8421ED2237881
:100BE0001370521C641C03928C4200D9009C401C60
:100BF000A84213D2A842BED310E0FFE76019884292
:100C000003D2042D01D9044608E0002004E0641C4E
:100C10008C4200D9009C401CA842F8D3049805607F
:100C20007461B069411BB16102D1B068706130611B
:100C3000F069032809D1B289306B511A89B2418514
:100C4000F2688A4201D105F038FC00204AE7000032
:100C5000700B00209C3700203C225043034A801830
:100C6000002901D042690A6080697047700B00203A
:100C700010B53C230D4C43431B191C6A052C03D0B3
:100C800000201060172010BDDB69002B05D0022B5F
:100C900006D0032B07D0FA2010BD01F053F810BD89
:100CA00001F094F910BD01F0B3F810BD700B0020F5
:100CB0003C225043094A8218106B002802D0126A65
:100CC000052A01D01720704708220129018903D085
:100CD00091430181002070471143FAE7700B002017
:100CE00000B50E490A6812180A600D4A11780029E9
:100CF00013D0D188081880B27D210901D0808842A4
:100D00000BD30020D080FFF7C1FB012805D150781C
:100D100003F060FB5078401C507000BD380100208B
:100D2000BC00002070B504780546082913D007DC04
:100D300001290BD002290BD0042916D1042008E088
:100D400010290AD0402910D1402002E0012000E003
:100D50000220044308E00820FBE710200443686BEE
:100D6000002801D003F0AEFD2C6070BD70B50546C3
:100D70003C2041430848081804463C21FFF7E3F9AA
:100D8000002D04D020463C222946FFF7C3F9A06875
:100D90002061606170BD0000700B0020FFB5046928
:100DA0000546C168601E83B0081800903C48C168C1
:100DB000491CC160002C2FD00598002867D00089FD
:100DC00002900498FD2220308178490849001140A2
:100DD0008170059E009872897768111981422FD918
:100DE0003048007C80071BD500983946001B401C0A
:100DF00080B2024601902046FFF78CF90198728973
:100E00003918101AAC6800282EDD87B23A46204601
:100E1000FFF780F9E41927E00020C04307B0F0BDD8
:100E2000002009E0397821700099641C7F1C8C42F5
:100E300000D9AC68401C80B271898142F2D813E0BD
:100E4000042A06D939462046FFF764F97089041947
:100E50000AE0002005E039782170401C641C80B253
:100E60007F1C71898142F6D83668002EB2D1A969FB
:100E700002982C610818A861059803F026FAA88941
:100E8000298B401A81B2049805F012FB01E0002B77
:100E900001D00020C2E7049803F014FDBEE7000073
:100EA000BC0000209C3700207047000070B53C4912
:100EB00057220A70A8220A70394A403A537BDF242D
:100EC00023405373D37BFD242340D37300230B7043
:100ED0003449CB70CC78DB252C43CC70CD780424FE
:100EE0002543CD70FF250D714E79C0252E434E71DF
:100EF0008E79360936018E718E7926438E71CC79C2
:100F00002C43CC71CC79A406A40ECC710B764C7E0C
:100F100001231C434C768C7EE406E40E8C768C7E9A
:100F200020252C438C768C7E10252C438C768C7E51
:100F3000FB252C408C768C7E1C438C76C8831A480B
:100F4000184B447920331C7204795C72C4789C720B
:100F50008478DC7244781C7300785873508B40237B
:100F6000184350831148114A806B803A80008018E2
:100F7000806F88810A48803005680D490D4A0988CC
:100F800012880C4611430B461D4305604169E4433A
:100F900014432140416181681943816070BD0000A4
:100FA0004010004000900040AC000020E43E0020D3
:100FB000B2000020B400002070B51549CA6B002AA9
:100FC00009D04A6B0C469200803C1219956F928FA3
:100FD00093B2002205E0002070BDAE5C8654521C26
:100FE00092B29A42F9D3486B002280002250486B9B
:100FF000401C4863042800D34A630648C178490668
:10100000490EC170C17880221143C170184670BD6D
:10101000E43E00200090004030B5124A13689B0067
:101020009B18DC68002305E005785B1C2570401CDC
:101030009BB2641C8B42F7D301240B4880230360CE
:101040000A48418111688900891889890181C1791B
:1010500008221143C17104488038036004480460C9
:10106000002030BD283F002080E100E000900040DB
:10107000CC00002010B5FFF7FBF910BDF8B5234CEC
:101080002679700603D5FFF769F9402020713007F3
:1010900004D51F490020086008202071F0062ED5D5
:1010A000012000F01DFD1B4D1B4F400710D50120F6
:1010B00000F0AAF8E8681949194A0988128811430A
:1010C0000843E860E07904210843E07102200FE062
:1010D000002000F099F8A8681049114A0988128880
:1010E00011430843A860E079FB210840E07101202A
:1010F0003862F86A04210843F86210202071B007B2
:1011000002D0607903202071F8BD000000900040FB
:10111000CC000020C010004058370020B200002052
:10112000B4000020002805D0FF210131081A02492F
:10113000C0B2085C70470000A471000000B5124AFC
:101140000B0001F065F80504071016191F00516B1C
:1011500081430AE0516B81435163116B0143116379
:10116000116A81430DE0516B01435163116B81435F
:10117000F5E7516B814301E0516B01435163116A03
:101180000143116200BD000080100040054A0021AB
:1011900013780370491CC9B2401C521C0629F7D3AE
:1011A00070470000080604007CB504466846FFF757
:1011B000EDFF00216A460520535C451A491CC9B25F
:1011C00063550629F8D37CBD10B50C480089C1B21F
:1011D0000B069A0F0A48022A05D0012A04D09A0F5A
:1011E00006D07D20000210BDC906C90E054801E0E9
:1011F000C906C90EFEF764FF10BD000000100040D4
:101200000048E80100389C1C70B5074C0025207090
:10121000A570E570257105486571A11D0068FEF790
:10122000B7FF657070BD00003C3F00203801002012
:1012300070B5144905460878002816D00C46881D5C
:10124000FEF79CFF7D21281AC90088420CD9A11DF8
:101250002846FEF79DFFE078A178000208430528A4
:1012600008D90020FFF7D0FF70BD2846891DFEF782
:101270008FFF70BD401CA070000AE07000F056FCAB
:1012800070BD00003C3F002010B504460020FFF771
:10129000BBFF0748002C07D00121417005480222FE
:1012A000C16A1143C16210BD0021417010BD000030
:1012B0003C3F00205837002010B50548FFF7F6FDE9
:1012C00004490020086004490120086210BD0000A4
:1012D0004F020000CC00002058370020F8B5324CF7
:1012E000606800903148016A01295CD00099A268C9
:1012F000C069891A4008814215D30098A0602D4921
:1013000062782B480988002A08D082680A4205D1F1
:101310000022627082680A43826002E0C2680A4367
:10132000C26005F09FFB0098E168401A224988429C
:1013300003D30098E06001F07BFD2048C1680029DC
:101340000AD00099E269891A7D22D200914203D322
:101350000099E16140688047194DFF262868F536FD
:10136000002816D000982169401AB04205D3009891
:1013700020612869002800D0804700986169401AE0
:101380001049884205D3009860616869002800D040
:1013900080470098A169401AB04201D90098A06125
:1013A0000098FFF745FFF8BD3401002058370020B2
:1013B000C0100040B4000020881300007C3F0020D3
:1013C000C037002060EA000001490120C86370476F
:1013D00058370020F8B5064600256846057069466E
:1013E0003046FEF76DFF00280BD0684600781349A1
:1013F000020607D54006400E3C2250434018456384
:101400000562F8BD3C22424354180D49497988428F
:10141000F7D2E0690328F4D1367C20463C21FEF760
:1014200092FE092E08D00A2E06D040212046FFF752
:1014300079FC25632562F8BD1021F7E7700B0020C9
:10144000BC0000200020704738B5846B0022002CBF
:1014500001D04B6F04E0002038BD521C1B6892B2D3
:10146000002BFAD1896F02E0521C096892B2002960
:10147000FAD1002300921A461946A047EBE7000074
:1014800070B50D4604460949284604F0DDFF0849B9
:10149000284605F06FF901220649284604F096FA1D
:1014A00008212046FFF73EFC002070BD9D0D000086
:1014B000491400004514000010B5054C2363626315
:1014C000A1636061E06A01210843E06210BD000091
:1014D00058370020FFB583B0074600200E460F990D
:1014E00005460190029014460091684603F063F8A7
:1014F0006946087101980106090F03292CD10107DB
:10150000C90F39704107890FC0073160C00F2070C3
:1015100002A9009800F03EF800990546401802998B
:1015200000904418224669460C9803F053F80028AE
:1015300012D00098201A0FD43068002804DD6846C5
:1015400003F03FF8069908800098211A0E980125AB
:1015500001600D9800990160284607B0F0BDF8B50C
:10156000012500240E4607460C60641C042C0FDC89
:1015700001216846B84701280AD1684600783268D8
:101580004106490E69435118ED0131600006ECD463
:101590002046F8BD10B5034A10600348FFF7DFFF8F
:1015A00010BD0000B8000020BD26000030B5034685
:1015B00000208025CA17520E5418E209D201891A58
:1015C000CAB2E111002900DD2A431A54401C002947
:1015D000F0DC30BD401C802801DA401C704701213E
:1015E0008903884201DA801C70470349884201DA86
:1015F000C01C7047001D7047FFFF1F00F0B585B08D
:101600000026054602900F461446039600961046A3
:1016100000F0ACF80190FFF7DDFFB84204DDB41E26
:101620004AA000F0E5FD8AE0684606730398F021C1
:101630008843103003906846017B02A805F056FDF0
:1016400001990298FFF7B2FF029940180290207AA0
:10165000042817D03FA102A805F034FD032102A8F9
:1016600005F044FD68460670009802218843A17E7B
:10167000C907890F08430090E27E0421002A07D0A1
:10168000084306E035A102A805F01CFD0421E6E7A9
:101690008843009041070ED5182188432146203108
:1016A0004A7F097F9207D20E10432022C907904338
:1016B000890E08430090206C002802D1A06C0028FD
:1016C00003D00098802108430090E06C002802D1EC
:1016D000606D002803D000984021084300906846C0
:1016E000017802A805F002FD218B02A805F004FD97
:1016F00021460C310EC902A805F00DFDE07E002840
:101700000BD0214624310EC902A805F004FD214664
:1017100030310EC902A805F0FEFC009E300605D54A
:10172000214640310EC902A805F0F5FC700604D52B
:101730004C340ECC02A805F0EEFC0298441B214666
:1017400008A000F055FD204605B0F0BD657869742D
:101750000A0000004D514973647000004D5154540B
:101760000000000072633D25640A000070B5044665
:10177000007A0025032802D0042802D002E00C25BC
:1017800000E00A2520460C3007C800F00BF9451987
:10179000E07EAD1C00280DD02046243007C800F0A4
:1017A00001F906462046303007C800F0FBF8301833
:1017B00045192D1D206C002802D1A16C002905D0EF
:1017C000A26C616C00F0EEF84519AD1CE06C0028CD
:1017D00002D1616D002905D0626D216D00F0E2F843
:1017E0004519AD1C284670BDFFB583B00C9E00277F
:1017F000054600903C46029730460D9900F060F88F
:101800000190FFF7E7FE01460498814202DDB81E11
:1018100007B0F0BD684607720298F021884308219E
:10182000803088430599C907090F0843062188437A
:10183000801C02906846017A05F058FC01990098D6
:10184000FFF7B4FE0099401800906846069905F02D
:1018500053FC30E00C200D996043401808214118DA
:101860000A78077913464A78120213438A78C978AE
:10187000120413433A46477909063F023A438779EF
:101880000B433F04C1793A43090607780A433946B6
:1018900047783F0239438778C0783F0439430006D0
:1018A0000143684605F037FC0E98A100415C68468C
:1018B00005F01CFC641CB442CCDB0098401BA7E77D
:1018C000F3B5022581B0064600242CE00C200299D5
:1018D00060434018082141180B7807791A464B7865
:1018E0001B021A438B78C9781B041A4309060A4362
:1018F00039464779C3793F02394387791B063F044C
:101900003943194303461F7838465F783F0238430E
:101910009F78DB783F0438431B06184300F042F8F9
:101920004519641CED1CB442D0DB2846FEBD000006
:1019300030B5C9B00C46054658220C496846FEF73A
:10194000E9FB0BA0039014216846018301218176F5
:101950006A46C82116A810951394FFF74FFE01465A
:1019600016A800F00DFC49B030BD00004C7100001D
:101970003131000000B5B9B0002105910491069104
:10198000039006A803A9012301910290002200936D
:10199000C82107A8FFF728FF014607A800F0F0FBC1
:1019A00039B000BD10B5002802D0FEF7D7FB0146C4
:1019B000084610BD03E00B780370401C491C134619
:1019C000521E92B2002BF6D170470000F0B51C22D7
:1019D0000C461440144A57268D07134BA827AD0F09
:1019E000403A00281E701F7010D0080603D5D07B27
:1019F000FD210840D073907A204390720A48203825
:101A0000C17B2943C17300201870F0BD080603D5BF
:101A1000D07B02210843D073907AA0439072024891
:101A20002038C17BA943EDE740100040F8B50D4ECA
:101A300057270C4C0025A821203E002827700ED0E7
:101A4000A8202070012070713071257002F0DAF842
:101A50002770A82020700D2030712570F8BD2170EE
:101A60003571FAE74010004010B5124C206C002888
:101A70001CD111A000F0BCFBA06B81002046803877
:101A80004158002901D0002010BDA26B0121920015
:101A90008150A06B0C4A128850430C4A82180C48A3
:101AA0008281C27904231A43C2712164206CC0B2BE
:101AB00010BD0000E43E00205175617279457468E4
:101AC0005278446D610D0A009C37002010020020FE
:101AD000009000400148007970470000BC000020E1
:101AE000C006C00E202108430149087108887047CC
:101AF00020900040F8B50C4E0025B46911E0204656
:101B0000FFF768FC204603F011FFE068002D01D0CC
:101B1000E86000E0B06121460220E76802F0F2F9D7
:101B20003C46002CEBD1F8BDDC00002038B5064C5B
:101B300000206168009160606946204601F04CF920
:101B40000098606038BD0000D8370020F0B52B4DFC
:101B50002A4904275722A824284E203D203103007B
:101B600000F056FB0D080E161B1F24282C32373CA4
:101B700041462F000A700C70F07BFB22104003E0FE
:101B80000A700C70F07B3843F073C820288118E08D
:101B90000A700C705120C000F8E70A700C701848E9
:101BA000F4E70A700C7081208000EFE70A700C7077
:101BB0008820EBE70A700C700220E7E70A700C70CF
:101BC0002F8100200870F0BD0A700C7093208000F7
:101BD000DCE70A700C700A484D30D7E70A700C70C9
:101BE00095208000D2E70A700C704B20C000CDE732
:101BF0000A700C7002485C30C8E7000020100040FA
:101C00000202000030B587B000251D4C03950495F5
:101C10001A48059520620C386062001DA062001D04
:101C2000E06201F0B5FF042203A8616AFEF772FAD0
:101C3000042204A8E16AFEF76DFA042205A8A16A4D
:101C4000FEF768FA06220F48216AFEF763FA0E488B
:101C500005600E4805600B482B3802F0D9F90C4896
:101C600002900C490748019105AB04AA009503A90D
:101C70002B3802F095F907B030BD00006437002022
:101C80003401002003380020D4000020D8000020B8
:101C9000792E0000DD2E0000FFB504690546C168FD
:101CA000601E81B00F1803980026406841780278C2
:101CB0000802104302F00DFA0005000F80004142B7
:101CC000039802F024FB002802D0002005B0F0BDEC
:101CD0000398002834D0002C0CD0E868002809D0E4
:101CE000039842894168931912199EB2BA4212D9D7
:101CF00000220CE0039802F0E8FA21E00B78237050
:101D0000491C641CBC4200D9AC68521C92B2438985
:101D10009342F3D80AE0002205E00B78521C2370AE
:101D2000491C92B2641C43899342F6D8006800288B
:101D3000D7D1039802F0C9FAA8692C618019A8616B
:101D40000120C3E7F7B53C2148432F49002514681B
:101D500084B04018156016460290002C14D00598E7
:101D6000002811D00298006B03902848006C80076F
:101D700000D4C7256D1CADB2C82D40D8B920C00015
:101D8000844204D9009004E01A2007B0F0BD204638
:101D9000009481B20022104602F09EF9070030D074
:101DA0007868009A0599FEF7B5F918490020C863CC
:101DB0003946039802F0B1FB0190384602F085FAEB
:101DC0001248C06B002802D1019800280DDA0020CB
:101DD000306040210298FEF7A5FF0198002802DA42
:101DE000FFF7A0F9D1E7FA20CFE73168009808188B
:101DF00030600099059840180590641ABAD1002007
:101E0000C3E71120C1E70000700B00205837002005
:101E1000F7B50025146882B017462E461560002CD1
:101E200015D00399002912D03C2148433749401866
:101E3000006B01903648006C800700D4C726761CE2
:101E4000B6B2C82E06D93868002850D156E01A20FC
:101E500005B0F0BD0198007C042801D01720F7E7F9
:101E60002B48006C800701D5FEF7E8FC0198403054
:101E7000C08D0090002807D0254D4435287CC00730
:101E800004D10098844201D91120E1E700988442EE
:101E900000D8009468680099884200D200900198A8
:101EA00003F032FB1A484430007CC007009802D08F
:101EB00082B2012301E082B200230399019804F069
:101EC000FDFD050005D0681C01981BD003F01CFB2C
:101ED00014E0019803F018FB0546396800980818CB
:101EE00038600099039840180390641A01D10020CB
:101EF000AEE707484430007CC007A0D12846FFF772
:101F000011F9A5E703F000FBF3E70000700B0020D8
:101F100058370020FFB505460469C068611E4718A0
:101F2000A96B002681B09446002902D0AC68611EDE
:101F30004718110006D0002C01D0002804D1084613
:101F400002F0C3F905B0F0BD4B8948689A1996B202
:101F50001A19BA420ED9002308E002782270401CF8
:101F6000641CBC4200D9AC685B1C9BB24A899A4293
:101F7000F3D80AE0002305E002785B1C2270401CC5
:101F80009BB2641C4A899A42F6D809680029DBD1C1
:101F900001200003864200D90646604602F095F90A
:101FA000AF6B002F0DD00498FEF7E8F800960146BD
:101FB000AB6828460A9AB8470020A861A86828613B
:101FC000C0E7A8692C618019A861BBE7F7B50025B7
:101FD000146884B016461560002C17D005990029A6
:101FE00014D03C21484327494018006B02902648F2
:101FF000006C800700D4C7256D1CADB2C82D3CD83D
:1020000017208001844204D3009004E01A2007B016
:10201000F0BD2046009481B20022104602F05CF828
:1020200007002CD07868009A0599FEF773F81649D6
:102030000020C8633946029804F06CFF01903846CE
:1020400002F043F91048C06B002802D10198002823
:1020500009DA002030600198002802DAFFF762F800
:10206000D5E7FA20D3E73168009808183060009966
:10207000059840180590641ABED10020C7E71120CA
:10208000C5E70000700B00205837002010B5102164
:102090000120FFF79BFC032001F0A6FD0220FFF7C3
:1020A00055FD05498A6A481502438A620321FFF7F4
:1020B00045F800F08BF810BD8010004010B50948BD
:1020C00057210170A8210170064A8821403A1181E8
:1020D000002101700A2001F095FD0120FFF7A6FC08
:1020E00010BD00004010004010B50A20FEF7F8FDBA
:1020F00002488179FF221143817110BD0020004008
:10210000084902220A7000220A704001C8608879DA
:102110008871012088700A7804231A430A700249E2
:10212000086070470020004000E100E010B590B06A
:102130003C216846FEF707F80E4C694660690B9033
:102140000D480990A0880A90401CA08003200790A9
:102150000A4802904320C0000390A01CFEF7EAFB4F
:1021600001F060FDA078FEF7B7FB01F05BFDA07801
:1021700010B010BD880000205B070000283300204D
:1021800073B5074E019D0446019501AA2146B0781A
:10219000FEF76EFD01982D1A2418002DF4D17CBD98
:1021A0008800002010B50446FFF70EF80A214843C6
:1021B000C0082146FDF784FF0A21401DFDF780FF7E
:1021C0000149888110BD00000034004010B5E120B5
:1021D0004002FFF7E7FF0548872181700321C170A6
:1021E000402141700121817310BD00000034004086
:1021F0000FB410B503A9044B044A029800F024F868
:1022000010BC08BC04B01847A1300000C401002075
:1022100030B47446641E2578641CAB4200D21D465F
:10222000635D5B00E31830BC184702E008C8121F6A
:1022300008C1002AFAD170477047002001E001C1AF
:10224000121F002AFBD17047FFB591B00F4605461B
:10225000002606E025280AD0149A139990476D1C91
:10226000761C28780028F5D1304615B0F0BD002442
:1022700000940121F34A029400E004436D1C2B7882
:102280000846203B98401042F7D128782A280ED0E3
:10229000022128780246303A092A15D8009A0A23E2
:1022A0005A43303A80180C436D1C0090F1E701CF7F
:1022B0000090002805DA01204003044300984042C2
:1022C0000090022004436D1C28782E2815D104208C
:1022D000044368786D1C2A280AD101CF6D1C029036
:1022E0000BE002990A225143303940186D1C0290CC
:1022F0002878014630390929F3D928786C2810D07C
:1023000006DC4C281AD068280ED06A2817D104E0C1
:10231000742813D07A2812D110E00120400504431C
:102320000CE00121090501E0032109050C4369784E
:10233000814203D10120000524186D1C6D1C2878F2
:1023400003906E281ED00CDC632831D004DC0028FA
:102350008AD0582811D1B2E064287BD069280CD1EA
:1023600078E073282DD004DC6F2870D0702804D159
:10237000A7E075286CD078286BD0149A13999047F1
:10238000761C62E06002400F022807D003280AD0C2
:10239000042838680AD006603F1D56E03868F117F7
:1023A00006604160F8E738680680F5E70670F3E7F5
:1023B0003878694608740020487404A80390012006
:1023C00003E0386803900020C0433F1D61070FD52C
:1023D000002101E00199491C029A0191914213DA0E
:1023E0008142F7DB019A0399895C0029F2D10BE065
:1023F000002101E00199491C01918142FADB019A17
:102400000399895C0029F5D101990098139A401A23
:1024100000902146149B00F03BF901998019461861
:1024200007E0039803990078491C0391149A1399C3
:1024300090470198401E0190401CF2D12146149B08
:10244000139A009800F014F986196D1C09E741E011
:1024500033E034E00A200021049005916002410F2E
:10246000022905D001CFC2179446032905D007E001
:10247000FF1DFF08FF0003CF06E000B2C21794461D
:10248000042902D140B2C1178C460022614694450E
:1024900006DA0A460021404291418C462D2102E095
:1024A000210504D52B216A461176012103E0E107BD
:1024B00001D02021F7E7019154E00A200BE0102021
:1024C00009E0102004900021042004430820059115
:1024D000029003E008200021059104906002410F62
:1024E000022905D001CF00229446032906D006E038
:1024F000FF1DFF08FF0003CF8C4603E080B20429D4
:1025000000D1C0B20021019121072BD50399702978
:1025100006D0049A1021059B4A401A4305D00EE0CC
:1025200040216A461176012108E06146014306D048
:1025300030216A4611760399517602210191049A5D
:102540000821059B4A401A430CD16146014301D141
:10255000610707D530216A46117601210191029960
:10256000491E02910399582904D037A103910FA95C
:102570000F910DE039A1F9E76146059B049AFDF73B
:1025800010FE039B8C469B5C0F9A521E0F92137099
:1025900061460143F0D10F9807A9081A2030039033
:1025A000600704D5012000048443029801E0012063
:1025B00002900399884201DD401A00E00020411892
:1025C0000290019809180098401A0090E00306D480
:1025D0002146149B139A009800F05AF8861900209F
:1025E000049008E006A9085C149A1399904704988F
:1025F000401C761C049001998842F3DBE0030CD563
:102600002146149B139A009800F042F8861904E0C2
:10261000149A302013999047761C0299481E029014
:102620000029F5DC08E00F980F990078491C0F91FC
:10263000149A13999047761C0399481E0390002919
:10264000F1DCFBE60928010030313233343536370E
:1026500038396162636465660000000030313233EE
:10266000343536373839414243444546000000008E
:10267000F8B5044600251E461746880404D405E034
:1026800039462020B0476D1C641EF9D52846F8BD98
:10269000FFB50446002581B01E46C80301D530278A
:1026A00000E02027880404D505E038460399B047A8
:1026B0006D1C641EF9D5284605B0F0BD30B5044642
:1026C00006480023026803E01578521C25705B1C45
:1026D0008B42F9DB0260084630BD0000B8000020E4
:1026E00070B504000ED0256A002D0BD0A87C0828F8
:1026F00008D10846FDF742FDA96A884202D120466A
:1027000000F09CF870BD0000F8B5050010D02C6AF0
:10271000002C10D00022FF213531104601F0DCFCE6
:10272000606100280AD0E27C4249002A09D00BE00F
:102730000920C043F8BD0820C043F8BD0020C043B5
:10274000F8BD4A68521C4A6049682160416801200E
:10275000A1610870A16900264870A16906208870EF
:10276000A069C670206800F0A3FCA169091DFDF7EF
:102770000FFDA069310A06724172A069310A8672A2
:10278000C172A16900200C31FDF702FDA07C0A286E
:1027900003D0052801D0042804D1A16968680C3150
:1027A000FDF7F6FCA16900201031FDF7F1FCA169ED
:1027B00000201431FDF7ECFCA16900201831FDF771
:1027C000E7FC0020294620318A7A824203D92A1860
:1027D0002032D27A00E0002207461C37A369401C51
:1027E00080B2DA551028EFD3002001462C31A269BF
:1027F000401C80B256544028F7D3002001466C316B
:10280000A269401C80B256548028F7D30A4800F0D1
:102810004FFCA169EC31FDF7BBFCA683002001460B
:10282000A269F0315054401C80B24428F7D30020F4
:10283000F8BD0000BC01002063538263F8B5054673
:10284000046A002000900C21204600F0EFF8284692
:10285000FFF75AFF060046D101223521204600F03D
:102860005AF80421204600F066F80422322120465E
:1028700000F051F8A06A01F02AFC0146204600F061
:1028800062F804223621204600F045F8606A01F023
:102890001EFC0146204600F056F807223D21204646
:1028A00000F039F829462B31204600F06DF820461B
:1028B00000F0A4F8A08BF03081B2606901F05AFDFD
:1028C000A169A06A0C31FDF763FC6F68009868602D
:1028D00000954323074A6169606804F036FB284687
:1028E0006F6000F009F8E07C401CE0740420E08395
:1028F0003046F8BDD371000010B500280AD0046A34
:10290000002C07D06069002801D001F0DEFC002017
:102910006061A06110BD10B5838B8469E4185B1CF5
:102920008383E0342174818B83695B18491C818324
:10293000E0331A7410BD828B83699B18521C82830A
:10294000E0331974704710B5828B83690C0E9B18A5
:10295000521C8283E0331C74828B84690B0CA41894
:10296000521C8283E0342374828B84690B0AA4187E
:10297000521C8283E0342374828B83699B18521C1F
:102980008283E033197410BD10B5828B83690124F2
:102990009B18521C8283E0331C74828B83690C78F1
:1029A0009B18521C8283E0331C74828B83694C78A1
:1029B0009B18521C8283E0331C74828B83698C7851
:1029C0009B18521C8283E0331C74828B8369CC7801
:1029D0009B18521C8283E0331C74828B83690C79B0
:1029E0009B18521C8283E0331C744B79818B826963
:1029F0005218491C8183E032137410BD002814D092
:102A0000818B8269FF235218491C8183E032137441
:102A1000002305E082695218491C8183E032137457
:102A2000818B4429F6D38A07F4D17047827C8A428D
:102A300002D081740021C17470470000F7B584B0E2
:102A400006007DD0069840892B287AD306984568E1
:102A500001202C460F3400F02DFB6178227809020A
:102A6000114388427CD1414800F024FB0146607943
:102A7000227900021043814272D10120C00200F08D
:102A800019FB0146E078A27800021043814267D129
:102A9000374800F00FFBAA7B6B7B11021943884279
:102AA0005ED121460E31042202A80091FDF732FBCF
:102AB00021461831042203A80191FDF72BFB706811
:102AC000002805D00399814202D101273B4601E04D
:102AD00000273B462246083202A9304604F0AAFAF3
:102AE000E079A1790002084300F0E4FA012802D05D
:102AF000022835D126E0002F32D0022000F0DAFA89
:102B0000A071000AE071042200990198FDF702FB10
:102B10000422311D0098FDF7FDFA0621491EC9B2B5
:102B20006018027A82746B185A70059A0029525CF8
:102B300002720598405CD871F0D1B26906990DE037
:102B400011E00DE002A93046FFF7CAFD094801680F
:102B5000002905D0C268002A02D002A93046904759
:102B6000069801F0B2FB07B0F0BD000004060000BB
:102B700006080000C037002070B5050011D04C6871
:102B800020461B300646FDF7F9FAA9686A68084036
:102B90000A40904205D10023E21D3146284604F048
:102BA00049FA70BDFEB50E46044615460F21304663
:102BB00001F0ADFB002802D00120C043FEBD21463C
:102BC000284600F00FFC002801D0284B2FE02846B3
:102BD000FDF7D4FA07460F20000701F078FA074006
:102BE0000720400701F073FA874227D10121684688
:102BF0000170002141705E2181702846FDF7BEFA08
:102C000001F065FA4002410E6846C1702846FDF7A2
:102C1000B5FA01F05CFA010A684601712846FDF731
:102C2000ADFA01F054FA0146684641716B462246FE
:102C30002B323146204600F0E1F8FEBD2846FDF774
:102C40009DFAA168626808400A40904204D0E0689A
:102C5000002807D025460C3532462946204600F08C
:102C600007F8FEBD0320C043FEBD0000D771000081
:102C7000F7B586B006980D462B3000900020C04373
:102C8000019014462846069900F0ACFB002827D195
:102C90002846FDF773FA06460F20000701F017FAE1
:102CA00006400720400701F012FA864218D0002D96
:102CB00016D02846FDF762FA002811D001212846D7
:102CC00000F066F900280DDB144E07017068391812
:102CD000887A002808D0012808D0002C06D00EE001
:102CE0000920C04309B0F0BD01208872FEF76CFBDB
:102CF0002946069800F070F80190002C0BD07068FF
:102D00003B18987A022806D121461B1D009A069886
:102D100000F074F801900198E4E700002C01002015
:102D2000FFB581B01F4600222B21032001F0D4F90A
:102D300006004AD075680D982C460F3400F0BAF999
:102D4000A071000AE0710620401EC0B23A5C211852
:102D50000A720B9A125C8A7403990A5C29184A70E9
:102D6000029A0028125CCA71EED1204604220E306D
:102D70000A99FDF7CFF92046042218300C99FDF787
:102D8000C9F9012000F096F92070000A6070012056
:102D9000C00200F08FF9A070000AE0700C4800F04B
:102DA00089F92071000A60710A4800F083F968739C
:102DB000000AA8730198314682699047044630465C
:102DC00001F083FA204605B0F0BD0020C043FAE7C9
:102DD00004060000060800001FB501230393064CFB
:102DE000021D0346009202912B3301941946A21F43
:102DF000FFF796FF04B010BDDD710000F8B54D6817
:102E00000E4607460624641EE4B22819195D417077
:102E1000115DC171002CF6D10120C00200F04AF909
:102E20006873000AA873BA69314638469047F8BDFE
:102E300030B50F4900200F4C4B6814E00101C91850
:102E4000CA7A521CD2B2CA728D7A022D02D0012DDA
:102E500003D006E0F02A02D203E0022A01D30022C6
:102E60008A72401CC0B2E1688142E7D830BD0000E0
:102E70002C0100209C37002070B5044640680D46A8
:102E8000817B427B0802104300F014F90121C90242
:102E9000401A04D0062816D00F49C8420AD121464C
:102EA0002846FFF769FE0E21C943204601F02FFA9C
:102EB000002803D0204601F008FA0AE029462046FF
:102EC00000F05AFB05E0294622462B312846FFF741
:102ED000B5FD002070BD00004F66FFFF10B5FFB0CC
:102EE00081B0044668460B496062FDF73EF9204612
:102EF00065212030E56181746E21C17406486061EE
:102F00000648A061204600F027FD7FB0002001B0F8
:102F100010BD0000303E0020A52B0000ED3A00005F
:102F200070B505461648C16B002927D0154A51785F
:102F3000491C5170144A80211160C06B134A00066D
:102F4000000E11601AD0284600F064FD040015D070
:102F50006068817B427B0802104300F0ABF80121DE
:102F6000C902401A01D0062805D12A6929462046FF
:102F70009047002802D0204601F0A7F970BD00005C
:102F8000E43E00203401002080E100E000E100E0A8
:102F9000F3B5414887B0C76800247DB202943F4929
:102FA00001950394009507984E6800284DD0084677
:102FB00000780590000104908019807A022844D19D
:102FC0000798FDF7DBF80499715888423DD10598C0
:102FD00040B209B0F0BDAF4204D120018019807A1F
:102FE000002809D02001059080190490807A0128DA
:102FF00004D0022816D026E065B224E00798002805
:1030000007D0FDF7BBF805997158884201D12348D4
:103010003FE004980399C07A884214D361B20191C9
:10302000039010E00798002805D0FDF7A7F8059950
:1030300071588842EBD004980299C07A884202D332
:1030400061B200910290641CE4B2A742C3D8002090
:10305000C043AF4202D10899C907BAD0089989077D
:10306000B7D4AF4201D9ECB206E000998F4202D842
:1030700001998F42ADD9CCB227010020BD19A872A9
:103080000798002802D0FDF779F8F0510021034895
:10309000E972047060B29CE79C3700202C0100208C
:1030A0000249CA7A082AFCD00872704700340040EE
:1030B00000BA704740BA704710B50A46032100F0C5
:1030C000FBF810BDF3B5456804466878297800021E
:1030D00089B0084300F0FDFF0005000F8000414269
:1030E00007900091204601F012F9002824D1208990
:1030F000042821D366683078032802D00828F5D147
:103100001BE0707C327C0002104331460831377A74
:10311000000A0D4601900422103103A8FCF7FAFFC3
:103120003807800E28188178C07809020143737827
:10313000019A0398FEF7C0F9B6E028461030012640
:103140000490FDF71BF807460F20000700F0BFFFB3
:1031500007400720400700F0BAFF874200D1002651
:103160000A99049800F03EF9002802D0FEF7B2FC5C
:103170009AE0FEF7AFFC00287ED0002E7CD020899C
:10318000082879D3204600F0D2F8002874D12221F3
:10319000204601F0BCF800281DD02046079901F018
:1031A000B6F8002868D121890022022000F094FF9F
:1031B000060079D0214601F03EF8002874D17568E8
:1031C0003046009901F0A3F800286DD1204601F0A7
:1031D0007CF8344606E02121C943204601F097F8E7
:1031E000002861D128460C30666806900490FCF7F0
:1031F000C5FF07460390284610300090FCF7BEFF3D
:103200000499FCF7C5FF38460099FCF7C1FF002779
:1032100037702848FFF74EFF0146F078B278000279
:1032200010430122D2028142104607D8FFF742FF25
:10323000F178B27809021143401C05E0FFF73AFF2C
:10324000F178B278090211434018B070000AF070AA
:10325000687A297A0002084300F03BFF0121C0B2DE
:10326000C9034018FFF726FF2872000A6872380A5F
:10327000AF72E872142100E016E0284600F051F821
:10328000A872000AE8722046079901F040F8002869
:103290000AD10A980121019102908023002200970F
:1032A0002046069900F0A8FA204601F00EF80BB06F
:1032B000F0BD0000FFF70000F7B50E4682B0002217
:1032C0002421012000F008FF050028D002986C6836
:1032D0004768267004986070002626716671A67192
:1032E000E67102981C22416868680830FCF712FFFA
:1032F000A670300AE0706989204600F012F8A070CC
:10330000000AE07001203A46019080230C3200212F
:103310000096284600F056FA284600F0D6FF05B081
:10332000F0BD10B500F042FCC04380B210BDF8B54E
:1033300000252E46044601270FE06189606800F0F1
:1033400035FC4019010C80B20D18A07AC00703D0DB
:10335000B81BC6B268BA85B22468002CEDD1002E25
:1033600001D068BA85B2E84380B2F8BDFFB5002548
:1033700081B02E46044601270FE06189606800F0A5
:1033800015FC4019010C80B20D18A07AC00703D0BB
:10339000B81BC6B268BA85B22468002CEDD1002EE5
:1033A00001D068BA85B20298FCF7E8FE81B24919EB
:1033B000000C44180398FCF7E1FE81B20919000CD7
:1033C00044180498FFF776FE04190A98FFF772FE76
:1033D0000019010C80B20818010C0818C04380B213
:1033E00005B0F0BD10B50C46FCF7C8FE0246411C06
:1033F00013D0002A11D03121095D89070BD56168EE
:10340000914208D0A0681346034001408B4202D18C
:103410001043401C01D0002010BD012010BDF7B5A5
:103420008EB004460F981426008D009060680790B7
:10343000C179827908020025104300F04AFEC104D8
:10344000C90C05910121490308400A9020891438CC
:1034500087B200981438C117490F08900818400324
:10346000000C09907FE00898874201DC012000E011
:10347000002005990A9AC904C90C11430B91002830
:103480001AD0384680B2069000221421022000F0A3
:1034900023FE0490002817D0406814220799FCF7F7
:1034A00039FE049840680C906068801960606089FB
:1034B000801B6081069E26E00846012149030843DF
:1034C0000B900998C000DDE70020C04311B0F0BDAB
:1034D0006589B54200D93546002D13D0022200215E
:1034E000032000F0F9FD010042D0606848600D81C2
:1034F0004D81049800F07AFE701B0604360C04D04F
:103500002468E5E72468002EE2D12E460B98FFF7E9
:10351000D1FD0C998871000AC8710698143080B2E8
:10352000FFF7C8FD01460C988170090AC1700C981C
:1035300000218172C17214210C98FFF7F2FE0C99E0
:103540008872000AC8720F98109A436904999847C4
:10355000049800F0BAFE06980999381A87B20598BF
:10356000401880B20590002F00D07CE70020ADE726
:10357000049800F0AAFEA7E7F3B585B001200390F8
:1035800005980E464568687829780002084300F0DF
:10359000A0FD000B042803D0059800F096FE06E17C
:1035A000687829780002084300F093FD0005000FB9
:1035B00080000090E878A9780002084300F089FDB7
:1035C00004460598418900988142E5D30598008911
:1035D000A042E1D328460099FFF7A3FE0028DBD1E3
:1035E0002146059800F0C6FE012002900F203446C7
:1035F000000700F06CFD0720400700F068FD204642
:1036000000F0F2FC002820D0201D1ED06768002F9B
:103610001BD0284610300190FCF7B0FDB84223D0F3
:1036200021460198FFF7DEFE00281DD10198FCF726
:10363000A5FD07460F20000700F049FD07400720C1
:10364000400700F044FD87420ED00298002804D0C5
:10365000002002905748046800E02468B44200D17A
:103660002468002CCBD101E0002C2DD1687A297A76
:103670000002084300F02DFDC0B211280ED10098C1
:103680002918C87889780002084300F022FD4428F0
:1036900004D1002034460390002E15D1687A297A8F
:1036A0000002084300F015FDC0B211280CD10098AB
:1036B0002918C87889780002084300F00AFD3E49BD
:1036C000884201D134461FE0039800281CD02846C8
:1036D0000C300746FCF752FD002815D0314638461D
:1036E000FFF780FE002800D056E73846FCF746FD7D
:1036F00007460F20000700F0EAFC074007204007BC
:1037000000F0E5FC8742EFD0002CEDD02B48FFF70E
:10371000D1FCE979AA79090211430842E4D1284C85
:1037200031466660A560059800F0A4FE00283BD1F4
:10373000687A297A0002084300F0CBFCC0B2012865
:1037400015D006280ED01128314607D02846103053
:103750000646FFF747FE00280ED022E0059803F04A
:10376000B7FA21E03146059801F0A4FB1CE0314690
:103770000598FFF7A7FC17E03046FCF7FFFC06466C
:103780000F20000700F0A3FC06400720400700F0D0
:103790009EFC864205D00598022145600598FFF7FA
:1037A0008BFC059800F091FD00206060A060002077
:1037B00007B0F0BDD40000206C070000FF3F000000
:1037C000B0010020FFB583B01F46164610460C9D81
:1037D0000D9C00F097F800280AD002903B46324634
:1037E000009501940499039800F006F807B0F0BD25
:1037F0000320C043FAE70000FFB581B006460398F6
:103800000C9D1F46002865D01420014600903046CC
:1038100000F07DFD002803D00120C04305B0F0BDBD
:103820007468607A217A0002084300F052FCC0B24A
:1038300039020843FFF73EFC2072010A617200F072
:1038400048FC000A0B9900020843FFF733FC207282
:10385000000A60720398FCF791FC21461031FCF7D6
:1038600097FC05200A9900020843012189030843B7
:1038700080B2FFF71FFC2070000A60703089FFF7EC
:1038800019FCA070000AE0700020A0711C4FE071CC
:103890003888FFF70FFC2071000A60713888401CDF
:1038A00038800298002803D0FCF768FC002802D179
:1038B000281D00D0686821460C31FCF769FC002007
:1038C000A072E07220460099FFF72BFDA072000A5B
:1038D000E07202E0706810300390288D002808D054
:1038E0003189814205D929463046039AFFF797FD71
:1038F00094E76B6931462846039A98478EE70000A3
:10390000B001002070B505461148046811E020465A
:1039100000F06AFB00280BD02846FCF72FFC01467C
:10392000A068626801400240914201D1204670BD0A
:103930002468002CEBD1074C2068002805D000F04B
:1039400053FB002801D0206870BD002070BD00002E
:10395000D4000020D8000020F8B5044625460620F3
:1039600020352249A8720A6A00202618135C2036E6
:10397000401CC0B2F3720628F7D31E4F1C480F63D9
:1039800088633846203848631B48C8631B490026B3
:103990000E601B4A3046127804E083005B185E60BC
:1039A000401CC0B29042F8D3002004E083005B18B2
:1039B000DF60401CC0B29042F8D31048C421C43824
:1039C000FCF7C1FB0D480121443801640D492185F4
:1039D00033216974806B0C490988484304494018B5
:1039E0000A4988810A480660F8BD000034010020B9
:1039F0001002002030380020D0010020283F002095
:103A0000BF000020DC0500009C3700200090004033
:103A1000CC000020F8B50027304880213D460160E9
:103A20002F4C606B621A80008018C06B636B80B291
:103A30009B009B189B6F636B9B00D258D2B2009285
:103A4000264A803A1160009A022A19D1002817D01C
:103A5000401C81B20322104600F03EFB05003AD024
:103A6000791E00F054FC2E467F1CFFB2052F01D9B1
:103A70000020F8BD7068FDF79FFA3668002EF3D17C
:103A8000164880210160E26B00231648002A02D00C
:103A9000009A022A0FD00278134E521CD2B2027042
:103AA0003678B2420ED30370E06B401EE063E06BE9
:103AB000002805D006E00370E06B401EE06301E0E3
:103AC000A06B6063054880380160002D03D00121A0
:103AD000284600F01CFC2846F8BD000080E100E00C
:103AE000E43E002034010020BE000020F3B5002594
:103AF00081B02C46691E029800F009FC20481E4F38
:103B0000016A1E4A1F4804E0641C944206D8012939
:103B100004D00368002BF7D1029C0EE00021016065
:103B20000B20C043FEBD66896168A81985B2324684
:103B30003846FCF7EFFA2468BF19002CF3D1124A7B
:103B40000D48136801219B009B1859601168491C9E
:103B5000116011680D4B1B78994201D3002111604F
:103B60003C2D00D23C252946FDF756FA012102984A
:103B700000F0CDFB0020FEBD30380020FFFF00002C
:103B800058370020CC000020283F0020BF00002034
:103B900010B500F0C9F800F0BFF9034880680028AC
:103BA00000D0804710BD00007C3F002010B50022EF
:103BB00007E00378891E1C02437889B22343D21898
:103BC000801C0129F5D8002902D0007800021218C3
:103BD000100C91B24018010C02D0010C80B20818F0
:103BE00080B2FFF767FA10BD70B500247D26054648
:103BF000F60004E0304600F005F8641CA4B2AC42C4
:103C0000F8D370BD002109E0012200BF00BF1346B8
:103C1000521E92B2002BF8D1491C89B28142F3D3D3
:103C20007047000010B5002803D0014601A0FEF740
:103C3000DFFA10BD6D53746F7049664572726F7212
:103C40003A20253032580D0A00000000FEF71EFA17
:103C50001548FDF7A9FA144B1A46143A111F081F0C
:103C6000FCF7BCFDFFF7DEFF10A0FEF7C1FA164817
:103C7000FEF746FA154980200860FEF757FA144C03
:103C800002E03220FFF7B0FF206A0228F9D311A02A
:103C9000FEF7AEFAFCF7D2FDFCF7E6FD0028F9D0FE
:103CA000FCF70EFCF6E70000AC0000204348353777
:103CB000784E45544C6962496E697420537563634C
:103CC0006573730D0A0000001027000000E100E09A
:103CD000583700204348353739204D51545420730C
:103CE0006F636B65742063726561746521537562DF
:103CF000736372696265640D0A00000010B50028E4
:103D00000FD008494A6890420BD38A68904208D283
:103D1000002208380271CA68904200D2C86000F0E0
:103D200067FB10BD7801002030B51049104A0868C3
:103D3000104CC01C80088000486013890125DB1CE2
:103D4000234003800023438003719368DB1C9B089E
:103D50009B001B188B601D711589ED1C25401D8073
:103D60001289D21C22405A80C86030BD78010020E0
:103D70009C370020FCFF0000F0B500284AD02849FD
:103D8000C31C0B400C2B00D20C23264CA068C01C7B
:103D90008508AD009D4241D32348C6684268B11AE8
:103DA00089B2EC1A38E050180579002D33D1058816
:103DB0006D1A083D9D422ED304881F46641A14379D
:103DC0000125083CBC4215D3CB1808339CB213190B
:103DD00000271F7107881F8059800480057119888A
:103DE000104B9B68DB1C9B089B00994203D0931CE3
:103DF000CC5200E005710C49B0420AD18C68CB6806
:103E00001D79002D05D0A34203D01B889B18CB60E1
:103E1000F6E70830F0BD515A8C42C4D80020F0BDFE
:103E2000FCFF00009C37002078010020F8B5324AE2
:103E3000C91C11400C2900D20C21304A9268D21CB6
:103E4000920892008A4210D32D4B5C68A0420DD399
:103E50009A6890420AD20246083A131B15889BB210
:103E6000EE1A083EB6B2B14201D90020F8BDB14207
:103E7000FCD02D19AC462F79214DED68AE46204D72
:103E80006D68AD1C002F1BD00F461437B742EDD81C
:103E9000591808318EB21A4FA119714500D2F96034
:103EA00000240C7114880C804B801680134A0988FA
:103EB0009268D21C920892009142D7D04E53F8BD1E
:103EC000591866460831368889B20096E64502D10F
:103ED0000B4E6718F760641800262671009E268036
:103EE0006380064B11809B682288DB1C9B089B002B
:103EF0009A42E4D05153F8BDFCFF00009C370020EB
:103F000078010020002904D08200024883580B6009
:103F100081507047483F0020F0B50020401C80B21F
:103F20000828FBD30E490F4A8868C01C8408A400E7
:103F30000020002386009351450007E09759276031
:103F400094510F687F5B3C195B1C9BB24F687F5B91
:103F50009F42F3D8401C80B20828EAD3F0BD00008D
:103F600088010020483F0020082801D30020704726
:103F70000349820088580028F9D003688B507047A5
:103F8000483F00200EB505480090401001900520E4
:103F900002906846FCF722FA0EBD0000204E000099
:103FA000F8B504460025089F06986560A56026467A
:103FB0002036E560757425620A4DE0612878307519
:103FC000401C28702046276100F013F8079920460E
:103FD0008847002801D00020F8BD6868206020468E
:103FE0006C60F8BDD00000202030407CC007C00FBE
:103FF000704770B51D461646044600F01BF8314662
:10400000204600F059F82946204600F007F870BD18
:104010000149886070470000D000002010B50446B8
:10402000002904D00846FCF7A9F8E06010BD002084
:10403000FBE70000F8B505460F4600260846FCF7EA
:104040009DF86968884228D0194800680FE0016827
:104050006A6891420AD10121C46800F0D5FA31465C
:10406000761C2046F6B2642901D902E0C068002817
:10407000EDD1104804680EE0002C0BD02068002819
:1040800008D06968884205D1002F0DD03846FCF76A
:1040900075F82060E468002CEED1002F06D0384679
:1040A000FCF76CF86860F8BD0020F2E70020F9E743
:1040B000F0000020EC00002010B50446002904D0D8
:1040C0000846FCF75BF8A06010BD0020FBE700BAD3
:1040D000704740BA70470000F8B5002516460F46F5
:1040E000002806D0012805D0022804D0032878D162
:1040F00002E0142514350E35002E49D0012E5FD074
:10410000022E5DD0032E6CD10720FFF72DFF040097
:1041100067D026730020206060191330B0436060C0
:10412000314827814068ED1C3930A908B043890027
:10413000401AB84200D9384680B201216081E1813D
:104140003D1A00941DE00720FFF70EFF00281BD04A
:1041500006730021417301600099AAB208602249E8
:10416000028149683931890889008A4200D229468A
:1041700089B202464181103242600122C2816D1A29
:104180000090002DDFDC26E0204600F09EF828E0BD
:10419000284613308108F81C800889008000081820
:1041A00080B2FFF7E9FD04001BD0601913308008CE
:1041B00080006060278167810020206020730AE012
:1041C0000620FFF7D1FE04000BD00020606027819D
:1041D0006781206026730120E08100206073204603
:1041E000F8BD0020F8BD00009C37002010B5002865
:1041F0000FD000290DD004E003890C891B1903811D
:1042000010460268002AF7D102890B89D218028170
:10421000016010BD10B50C46FFF7E8FF204600F026
:10422000D2F810BD002102E0491C0068C9B2002884
:10423000FAD108467047F8B500270C4605463E46B9
:10424000002805D0002C03D028892189884202D279
:104250000920C043F8BD6889C11B6089801B814269
:1042600001DB80B200E088B200906068009A81199A
:104270006868C019FBF74EFF0098381887B200989D
:10428000301886B26889B84201D12D68002760894C
:10429000B04201D824680026002C06D0608921890C
:1042A000884202D12068002808D1002D09D06889F1
:1042B0002989884205D12868002802D00820C043F7
:1042C000F8BD002CC7D10020F8BD70B5002815D06E
:1042D0000024C189491E0904090CC1810DD1017B4B
:1042E000056803290BD001290CD002290AD0FFF759
:1042F00005FD641CE4B22800EBD1204670BD0146E8
:10430000072001E001460620FFF7FCFDF1E710B5AC
:10431000002909D0002807D0002907DA4A4293B2C1
:1043200042899A4224D302E0002010BD8BB2027B66
:104330004468002A06D0032A04D0022A0AD0012A9F
:1043400008D015E0621A0346103342609A4208D240
:1043500044600DE000290BDA42899A4208D3621AC0
:104360004260428952184281028951180181DBE77B
:10437000012010BD70B502898A4223D98A1A0D46E0
:10438000044605E0281A85B2208980182081246817
:104390006089A842F6D3207B00280AD16089A84210
:1043A00007D0A088001B401981B22046FFF73EFDD0
:1043B0000446658125812068002801D0FFF785FF2C
:1043C0000020206070BD002802D0C189491CC18135
:1043D00070470000C107044803D0FF211F3141622C
:1043E00070470249FBE70000009000401E010400F6
:1043F00030B5134902884B68D2189C1C90420ED0ED
:104400001579002D0BD18D68AA4208D0CD68954250
:1044100000D1C860158805801288C51A15534288D6
:10442000D21882420BD01579002D08D1CD68854273
:1044300000D1CA60018811800088D11A015330BDB3
:104440007801002010B50446002905D00846FBF786
:1044500095FE2060002010BD0020FAE710B504464C
:10446000002905D00846FBF789FE6060002010BDDA
:104470000020FAE7F3B583B0002000900398466867
:10448000707A317A00020843FFF723FEC0B2019030
:104490001448002504681FE0217C0198814216D150
:1044A0006769002F13D033460C33A0692146039A65
:1044B000B84700280BD00020039001200090002D69
:1044C00005D0E068E86007480168E16004602546BF
:1044D0000098E468002801D1002CDDD1009805B0D7
:1044E000F0BD00007401002070B505460020FFF704
:1044F0003BFD040009D01C21FBF725FE257480201C
:10450000E07203480168E1600460204670BD00006D
:104510007401002082614161704710B5021D00F0F6
:1045200001F810BDF7B50E46044684B0142130469C
:10453000FFF7EDFE0027FF4300280AD000221146B6
:104540000120FFF7C9FD05000BD03146FFF762FEE1
:104550000AE013213546C9433046FFF7D8FE00284C
:1045600002D0384607B0F0BD0698FFF7CBF9002817
:1045700017D0002C1DD0216800291AD02146227C9A
:10458000A37A019202900093E37A2846069AFFF7F5
:1045900033F90446B54202D02846FFF796FE20467E
:1045A000E0E7B54202D02846FFF78FFE0320C04364
:1045B000D8E7011DE3E701680A78491C016010464D
:1045C000704701680A784B781202D218891C016082
:1045D00010467047F0B5054608680026101A1746C1
:1045E0000C4601280CDD0846FFF7EBFF68602168E8
:1045F0000A18BA4204D8A960216808180126206068
:10460000002028603046F0BDF3B50446007C87B03A
:104610000A283ED0A06D0390606A0290002C42D020
:1046200020680490201D00D06068059094200559F2
:10463000278B268C606900902046FCF7CBFE214634
:104640001A4801F095F9A06F002801D002F043F854
:10465000606F002801D002F03EF8E06F002801D022
:1046600002F039F821460220FFF74CFC002D03D060
:104670000421C9430098A8470898002807D005AB33
:1046800004AA009701960299039801F091FF09B0DE
:10469000F0BD06482146001D01F06AF921460220BE
:1046A000FFF730FCF3E700200490BDE7F0000020A6
:1046B000F8B507460220FFF757FC3E4C3E4D06007A
:1046C00040D1287C400701D40020F8BD00210846D5
:1046D000A668A26906E0136BF31A8B4201D3194650
:1046E0001046D268002AF6D1002802D00121FFF737
:1046F0008BFF0220FFF738FC060023D17F1E7F20AE
:10470000844600206269A168FEB2864600910DE0F1
:10471000517CB14209D8614507D8176B009BDB1B60
:10472000734502D39E4610468C46D268002AEFD1CC
:10473000002802D00121FFF767FF0220FFF714FCD9
:10474000060035D0AC21FBF7FEFC40207074C1019F
:104750003018C18500230386A98831857185B3721D
:104760008021F17243226968D200914200D911463A
:104770003187062101818380C180C91FF186012113
:10478000418200F05FFE7066B065F064B066A068BC
:1047900030633420835530460849803081600849B1
:1047A0000A6882614A68C26189680162A9208355EA
:1047B0003046F8BDDC0000209C3700204F6400002C
:1047C000B037002041617047F7B50746007C82B0E2
:1047D0001446002803D00C20C04305B0F0BD002CC7
:1047E00002D100F001FE04463548056811E0288B2F
:1047F000A0420DD1002D4BD02E68002E48D003983A
:10480000002845D0FBF7BAFC002841D0B0423FD089
:10481000ED68002DEBD12A4D103D6E6913E0308B11
:10482000A0420FD1002E33D03068009000282FD046
:10483000039800282CD0FBF7A1FC002828D0009971
:10484000884225D0F668002EE9D1EE6813E0308B5F
:10485000A0420FD1002E1BD030680090002817D046
:104860000398002814D0FBF789FC002810D0009989
:1048700088420DD0F668002EE9D1AE690CE0308B8D
:10488000A04208D10398FBF779FC3168884202D135
:104890000A20C043A1E7F668002EF0D10398002853
:1048A00008D0FBF76BFC002804D00422384603999B
:1048B000FBF730FC3C83E868F8600020EF608CE791
:1048C000EC00002070B50546007C05260300FDF7CE
:1048D0009FFC08051D2B35354A4A3D4A2846FCF702
:1048E00079FD24480024C168A94201D1C96807E0C4
:1048F000C161002905D0C968A942F9D1E968C06938
:10490000C1600020E860294602200AE00024284611
:10491000FCF760FD17482946103001F029F82946B8
:104920000320FFF7EFFA23E000242846FCF752FDAE
:1049300010482946143001F01BF8E4E7012128460D
:1049400001F0D6FE040009D12E7407E001212846AB
:1049500001F0CEFE040001D109202874002D07D0FB
:10496000002C02D004E0002402E0284600F0CCFD38
:10497000204670BDDC000020FFB50446007C83B0FB
:1049800015460F46002803D00C20C04307B0F0BDE9
:10499000002F08D00422201DFBF7BCFB2584208BB0
:1049A000002803D005E00820C043EFE700F01CFD1D
:1049B000208300F047FD00256562A065401EE0648D
:1049C000A0661F4826464068208560854036432102
:1049D000E562C900B083884200D9084680B22087CA
:1049E000394600F031F820870A22012150437182B4
:1049F000B082022020748C22069810511148C2689F
:104A0000A24202D1D268C26008E0C261002A05D089
:104A1000D268A242F9D1C369E268DA604269E26011
:104A2000446100220191022300951146204600F0C6
:104A30001DF8050002D1204600F066FD2846A5E7D6
:104A40009C370020DC00002010B504460846FEF725
:104A500059FF002808D0008D002805D0283880B2E2
:104A6000844200D220460446204610BDFFB58FB0D8
:104A7000119919980143129880070143EE4877D0A5
:104A80001199002902D11099002971D10F9811991B
:104A900040300690C28D0F9820300D908A4205D28A
:104AA0008178802001430D98817050E11098029028
:104AB00019980991C00701D0042100E0002119983C
:104AC000800701D50C2000E00020081807900F98FF
:104AD000876E0698008E0590D84841680120C00373
:104AE000FBF7EEFA01460598814202D9D449884283
:104AF00001D90D98D4E7002603960F98018F0798E7
:104B0000081A0999884200DB084680B20090042008
:104B1000FFF72AFA04006ED0002525606560002E9C
:104B200027D00398046018980394C00723D00799EE
:104B300000980022401881B21046FFF7CDFA60605D
:104B40000028E8D0FFF76EFB01460598081880B2F0
:104B500005901098002807D06068009A416807986F
:104B600008180299FBF7D6FA60684068A06026E052
:104B7000EFE00646D7E7002210460799FFF7ACFAA8
:104B800060600028C7D0FFF74DFB01460598081864
:104B900080B205900998002811D0012203200099C5
:104BA000FFF79AFA010021D00598401C80B20590C9
:104BB000029848600298A0606068FFF717FB9F4862
:104BC00041680120C003FBF77BFA0146059881424A
:104BD00011D301469A4881420DD80098A081142132
:104BE0006068FFF794FB002805D105E06068FFF7D7
:104BF0006CFB002060609FE06068406820610F9857
:104C0000008BFEF757FA21690870000A48700F9868
:104C1000008CFEF74FFA21698870000AC870384688
:104C2000FEF746FA2169091DFBF7B2FA2069290A45
:104C30008574C17482483C38FEF73CFA2269054607
:104C4000517B127B090211430D401298FEF732FA94
:104C500005432069290A057341731998A0732169D6
:104C6000487B097B00020843FFF733FA07990522C6
:104C70008908800609031203800E89180843FEF78D
:104C800019FA21690873000A4873009909987F1876
:104C9000401A80B2099002984018029009980028A2
:104CA00000D02AE70F98456F002D72D000E005462E
:104CB00028680028FBD1002D6BD02969487B097B2F
:104CC00000020843FFF705FA800700D00120A989F8
:104CD000C84277D02969487B097B00020843FFF767
:104CE000F8F980076ED11298800702D01298012837
:104CF00068D1A889B18941180F98008F814261D885
:104D0000A87BB17B88425DD12869001DFBF736FA8C
:104D1000FFF7DDF9A98947183069001DFBF72EFA66
:104D2000FFF7D5F987424DD1079970681431494290
:104D3000FFF7EDFA00280ED00D988178802001430E
:104D40000D98002E817002D0304601F0C4FC002086
:104D5000C04313B0F0BD70684189002909D10168D2
:104D60007160002101600599491E89B20591FFF724
:104D7000ACFA1298C0070DD00120FEF79BF9296903
:104D80004A7B0B7B12021A4310430873000A4873D4
:104D90000AE014E071686868FFF728FAA889B18909
:104DA0004018A88130682860B44202D1A8892C46F6
:104DB000009031460420FFF7A5F804E002E00F98C8
:104DC000466700E02E601298800703D01198401CBF
:104DD00080B211901298C00705D00D9820218078DC
:104DE00008430D9988700F98816E119809180F98D3
:104DF00081660698C18D1198081A0699002CC885FD
:104E000006990598088614D00098002811D02069CA
:104E100000280ED0189880070BD40820FEF74AF916
:104E200021694A7B0B7B12021A4310430873000A64
:104E3000487300208DE70000F6FFFFFF9C3700203D
:104E4000FCFF00008030416170470000F8B5184851
:104E50000026446928E0254680352A68002A0FD0BC
:104E6000AF68002F04D0002321466069B84704E0F2
:104E700000232146184601F0EAFA002800D12860F4
:104E8000761CF6B2642E11D825462035A878C107C5
:104E900009D002210843A870204600F035FBA8780D
:104EA00080088000A870E468002CD4D1F8BD000010
:104EB000DC000020F0B50746ED4D87B040680C4699
:104EC000A8604178027808021043FFF702F9000554
:104ED000000F7968800040186860A96848780978F0
:104EE00000020843FFF7F5F80005000F800041427B
:104EF0003846FFF70CFA00287ED1388914287BD376
:104F0000A86821461030FEF76DFA0028F4D1A86891
:104F10001030FBF733F904460F200007FFF7D7F8EE
:104F2000044007204007FFF7D2F8844264D0388954
:104F30000090AA680623114638460C311032FEF75D
:104F400015FA0028D8D16868417B027B080210431B
:104F5000FFF7BFF8000B800041423846FFF7D7F952
:104F60000028C9D169684878097800020843FFF72A
:104F7000B0F8014668680170090A4170C17882780A
:104F800008021043FFF7A5F8014668688170090A16
:104F9000C170001DFBF7F2F8FFF799F869680C463D
:104FA000091DFBF7F5F8E86020460830FBF7E6F846
:104FB000FFF78DF869680C460831FBF7E9F82861BE
:104FC000E07BA17B00020843FFF783F80146686895
:104FD0008173090AC173417B027B08021043FFF70A
:104FE00078F88006800E28703989800700D001206B
:104FF00008186880002600E0B8E09E4804689C48D5
:105000000194806801460C31103004909848069154
:1050100045683EE068782A78218C0002104381427E
:1050200035D1E878AA78218B0002104381422ED135
:105030000698FBF7A3F86168884228D10498FBF72B
:105040009DF82168884222D1002E05D0E068F060EA
:1050500088480199E1600460002C1CD0864900203A
:1050600008603A898A817A684F608A60804A0D6157
:1050700050612646507080363268002A7BD0B56871
:10508000002D7AD0002321466069A8477AE02646A1
:10509000E468002CBED1794804681EE068782A785C
:1050A000218C00021043814216D1E878AA78218B26
:1050B0000002104381420FD10698FBF75FF8616848
:1050C000884209D10498FBF759F82168884203D136
:1050D000204601F08BFC49E0E468002CDED16848F2
:1050E00000260468009421E0002C0AD02068069075
:1050F000002806D00498FBF741F801460698814243
:1051000012D1E878AA78218B0002104381420BD19A
:10511000002E05D0E068F06059480099E160046015
:10512000204600F0DDF821E02646E468002CDBD1C3
:10513000687B297B00024E4C0843FEF7CAFF4007FC
:1051400014D4616848780A7800021043CA788B78D2
:105150001102194300910190A3686188E0681A4622
:10516000411810320C33206901F022FA3846FFF75B
:10517000ACF807B0F0BD08E0FFE700232146184671
:1051800001F065F90028F1D13060394D2046AC615D
:1051900000F022FC401D61D0687801071BD505A9ED
:1051A0002046FBF78DF8012802D1207C022855D03B
:1051B0002046FCF70FF97269002A03D00521C94384
:1051C0006069904721462B4800F0D2FB214602201F
:1051D000FEF798FE42E0C00603D52046FCF7FAF839
:1051E000F0E76C20025B002A05D07368002B02D028
:1051F0002146606998476A69002A17D02878000715
:1052000003D5507B012108435073B768002F04D0A9
:10521000002321466069B84704E000232146184670
:1052200001F015F9002801D06869306068782F46D0
:1052300080060ED5B668002E05D000231A462146FA
:105240006069B04705E000231A462146184601F080
:10525000FEF80020B861204600F056F90026064C02
:10526000AE616068002884D0FFF72FF8666080E7A1
:1052700094010020F0000020683F0020F40000208E
:10528000EC0000207CB50446002214210120FEF72A
:1052900023FF050022D0A06D401EFDF709FF034645
:1052A00000222946204600F0A3FA064628890090ED
:1052B0000623221D21462846FEF758F83074000ABE
:1052C00070740621002001910090E37A221D21468E
:1052D0002846FEF777FA2846FEF7F7FF7CBD000068
:1052E000FEB53C4D06462878C10616D56968487853
:1052F0000A7800021043CA788B7811021943009192
:1053000001906988E868AB68411828691A46401C12
:1053100010320C3301F04CF959E0800757D5707CFE
:10532000FFF7C6F904004BD0AF683846103001D003
:10533000FAF724FF2060308B208338460C3001D0F0
:10534000FAF71CFF60606A68507811780002084321
:10535000208403202074E868411C6162E162D17BF3
:10536000937B0A0221461A4340318A838A82401E77
:10537000206670696061F069E0613089FF219A31CF
:105380000840208114480168E1600460204600F074
:1053900087FA208F211DFFF757FB2087002001216E
:1053A000019102460090014612232046FFF75EFB62
:1053B000050008D000212046FFF726F92846FEBD4B
:1053C0000020C043FEBD204600F09EF8FEBD002038
:1053D000FEBD000094010020F000002010B5402028
:1053E000FFF766F910BD000030B51548134D44694C
:1053F0004188491C89B24180A94202D9012109038F
:1054000041802146438803E00A8B9A42F0D0C96864
:105410000029F9D1826903E0118B9942E8D0D26862
:10542000002AF9D1064910310A6803E0118B99422C
:10543000DED0D268002AF9D198B230BDFF7F0000DB
:10544000DC00002002498A6848688018486070477C
:10545000DC000020F8B50C4601690546487B097B55
:1054600000020843FEF735FE254FC00727D020462F
:1054700001F031F9002441E0707B317B00020843E8
:10548000FEF727FEC00716D01E48FDF713FE296958
:105490000646487B097B000208430640FEF719FEDA
:1054A0008006800E01210843FDF704FE06432869AB
:1054B000310A067341732046246801F0FBF8002C82
:1054C0001CD020690646001DFAF758FE0146A08947
:1054D000FA680818A9898918081ACDD52069001D0D
:1054E000FAF74CFEAA89F9685218121A002A05DD4B
:1054F000401A81B2A9816868FEF73CFF2C60F8BDB4
:1055000094010020C0FF0000F0B504467D4885B03E
:105510000068A04202D1002005B0F0BD2046403016
:1055200003900399808B498A884200D308460290F1
:1055300020462030656F00908078800712D5002DBE
:105540000CD02869001DFAF719FEFEF7C0FDE16CCA
:10555000401AA98941180298814203D9204601F0D6
:10556000D2F8D9E7A66F002E01D199E0064630683F
:105570000028FBD194E0A06F002812D000984422AC
:105580008078014610420CD1606F002806D0026876
:10559000002A06D18089228F904202D2A0200142A7
:1055A00076D028686067207C022812D01020FDF792
:1055B00081FD01462869427B037B12021A43114395
:1055C0000173090A41730098807881080098890066
:1055D00081702146284600F097F82869001DFAF7E7
:1055E000CDFDFEF774FD29690746487B097B000263
:1055F0000843FEF76EFD800700D00120A989381806
:105600004018A16D091A00D5A0652969487B097B5E
:1056100000020843FEF75DFD800701D0012100E094
:105620000021A889C14237D000202860A06F00283F
:1056300011D02869001DFAF7A1FDFEF748FD0746C5
:105640003069001DFAF79AFDFEF741FD381A20D5A2
:105650002046783003E0A5671CE0019800680190BF
:10566000006800280ED00069001DFAF787FDFEF7DC
:105670002EFD07462869001DFAF780FDFEF727FD7D
:10568000381AEAD40198006828600198056006E09D
:1056900017E035602E4602E0284601F00BF8656FF2
:1056A000002D28D02869001DFAF768FDFEF70FFDD0
:1056B000E16C401AA98941180298814200D85AE742
:1056C00001E0002D17D02646A036307A002812D1EE
:1056D0002869001DFAF752FDFEF7F9FCE16C401A4B
:1056E000A98941180398808B814204D90020803415
:1056F0006062012030720098807841060098490E5F
:10570000817008E7AC0100207CB505460C46486A6C
:10571000FDF7CEFC29690831FAF73AFD608DFDF7F7
:10572000C9FC29698873000AC873618D606A4018D2
:10573000E0622E69A87B1436C00707D02A48812171
:10574000406889040843FDF7B3FC3060002C02D0A8
:105750002068002808D1201DFEF7D4F8002841D089
:10576000011D07D0406820603620205E0026401CC6
:1057700002D002E00020F6E7E686E06B002809D1BF
:105780001A480068E0632869001DFAF7F7FCFEF785
:105790009EFC20646968288A8A880623801A4A89C0
:1057A000121A4A8169680A89101A08816968286989
:1057B00048602869310A067441746868221D0189AD
:1057C00000912146FDF7D2FD2969221D0874000AC7
:1057D0004874A07A062101910090E37A2146686816
:1057E000FDF7F0FF7CBD00009C370020E4000020A6
:1057F000F8B505461F461646008B4C68FDF75AFC67
:105800002070000A6070288CFDF754FCA070000A1C
:10581000E070211D3846FAF7BBFC686AFDF748FCCA
:1058200021460831FAF7B4FC1C48FDF743FC617BC4
:10583000227B0902074611430F401020FDF73AFC76
:1058400007432773380A6073688DFDF733FCA07334
:10585000000AE0730027A774E774607B217B0002D5
:105860000843FEF736FCF117890F891989100522C4
:10587000800609031203800E8918084380B2FDF7E1
:1058800019FC2073000A60732774380A6074698DEC
:10589000686A4018E8622046F8BD0000C0FF0000BA
:1058A000F8B5204E05467468617B227B08021043E0
:1058B0001434FEF70EFC000B05281CD97168487BD8
:1058C000097B00020843FEF704FC000B401F800424
:1058D000000C0021144B0CE0625C002A0BD0012A62
:1058E0000AD0022A0AD062185278002A03D051182E
:1058F00089B28142F0D3F8BD491CF9E762185678A5
:10590000042EF8D1091D8142F5D8D6789778320255
:105910003A435E6852BA964201D3002A00D1324619
:105920002A87E5E7940100209C37002070B50446E3
:10593000007C00281BD00A2819D0012817D0254642
:10594000803528680026002802D0FEF7BEFC2E60B5
:105950000020C043E086E06F00F0BDFEE667606FA8
:1059600000F0B9FEA06F00F0B6FE6667A66770BDD6
:1059700070B50C460168A14202D1C96801600BE014
:10598000114806E0C968A14203D1C069E168C1605D
:1059900002E0C1610029F5D100252046E560FFF74E
:1059A000C5FF207C0A280CD001280AD020462030D0
:1059B0008178CA0705D00222114381702046FFF783
:1059C000A3FD257470BD0000DC0000209023195059
:1059D0002030427570470000FEB50446C84F25468A
:1059E00038782035410700291BDA207C022813D0A3
:1059F000606AF9680A1A13D4228D8018081A0028E0
:105A00000EDC7878082108437870A87840084000B8
:105A1000A8700520C043FEBDA06D39698842F0D052
:105A20006CE180070CD5207C022809D0032807D020
:105A3000A87802210843A8702046FFF765FD5DE1C4
:105A4000B048A92100682063002008552046FFF7D0
:105A500027FF207C2646801E40360300FCF7D8FB3B
:105A6000080565BEC3F0BEEFEEB23878C106D7D5E3
:105A7000800748D5A06F0069001DFAF77FFBFEF78D
:105A800026FB3969401C88423AD1F08D401CF085D4
:105A9000F8680246401C6062E164E0627968521E68
:105AA000C87B897B00020843B083042022662074EF
:105AB000208F211DFEF7C8FF0A2120874143B182B4
:105AC000718A012900D140007082308E401E3086DC
:105AD000A16F0868A06700280ED00020E086B07291
